:020000040800F2
:10C00000E0AB0020EF550108D9520108DB520108CE
:10C01000DD520108DF520108E15201080000000072
:10C02000000000000000000000000000E5520108D0
:10C03000E352010800000000E7520108E95201083C
:10C04000EB520108ED520108EF520108F1520108CC
:10C05000F3520108F5520108F7520108F95201089C
:10C06000FB520108FD520108FF520108015301086B
:10C070000353010805530108075301080953010838
:10C080000B5301080D5301080F5301081153010808
:10C0900015530108195301081B5301081D530108CA
:10C0A0001F53010821530108235301082553010898
:10C0B00027530108295301080554010807540108B2
:10C0C000095401080B5401080D5401080F540108CC
:10C0D000115401081354010815540108175401089C
:10C0E000195401081B5401081D5401081F5401086C
:10C0F000215401082354010825540108275401083C
:10C10000295401082B5401082D5401082F5401080B
:10C1100031540108335401083554010837540108DB
:10C12000395401083B5401083D5401083F540108AB
:10C13000F0B5DFF8BC19B1F93220B1F93030D21ABC
:10C1400002F10F05CC8C8B8CEE1005EB16752D11C2
:10C15000260905FB0365ADB204F00F067600DFF893
:10C16000947957F825C04FF0030E0EFA06FE2CEA1C
:10C170000E0CB04040EA0C0047F82500601C80B26D
:10C18000904202D100205A1C8A84C884F0BD2DE957
:10C19000F84F0C469146DFF85869B18C491EB184BE
:10C1A0000E254FEA900B00F00308002C14BF404608
:10C1B0005846FFF7BDFF6D1EF7D1B08C401CB08410
:10C1C000F08C0E38F084B9F1220F0DD24FF0000A36
:10C1D000B9F1210F08BF042D20D000274AFA07F03B
:10C1E000400708D534B109E02946484601F086FBEE
:10C1F0008246F2E700E00CB1404600E05846FFF707
:10C2000097FF7F1C0E2FE9D3B08C401CB084F08CBC
:10C210000E38F084681C85B2082DD4D3BDE8F18FA8
:10C2200070B504460D46164605E016F8012B294662
:10C230002046FFF7ACFF30780028F6D170BD2DE91D
:10C24000F84F80460127DFF8A858B5F93090B5F9C6
:10C2500032A0AAEB0900441EB5F92E60B5F92C00F6
:10C26000301A401E00900AE04FEA9800FFF760FF86
:10C270000BF1010B1FFA8BFBA345F5DB7F1CBFB253
:10C280000098874204DAAF840120E8848346F1E70E
:10C2900002270AE0AF84002000F03DF8AF84AAEB4B
:10C2A0000900401E00F037F87F1CBFB2009887429B
:10C2B000F0DB0020A8840220E884022702E000F0DE
:10C2C0002BF87F1CBFB2A742F9DBB5F92C00361A58
:10C2D000701EA8840220E884022702E000F01CF807
:10C2E0007F1CBFB2A742F9DB0120A88400F013F83D
:10C2F000B41EAC84012000F00EF80120A884AAEB43
:10C300000900861EEE8400F007F8AC84EE844046F7
:10C31000BDE8F24F0CE7E884404609E701EBC000B6
:10C320000FF20C0101EB4000A0F508700088704787
:10C3300000000000000080074000200020002000D6
:10C3400020002000400080070000000000000000E6
:10C350000000000000000F0010002000200020005E
:10C360000C038C01C0006000300018030C030000B7
:10C370000000800160021C026A0284024001000089
:10C38000020202020202020202020202FE03000094
:10C3900000000000F800FC0106030202000000009B
:10C3A0000000000002020603FC01F800000000008B
:10C3B00000008C01D80070007000D8008C010000D3
:10C3C000000020002000F800F800200020000000FD
:10C3D0002000200010000F000000000000000000FE
:10C3E000000020002000200020002000200000008D
:10C3F0000000000000030003000000000000000037
:10C400008001C0006000300018000C000600000031
:10C41000FC01FE03420222021202FE03FC010000A4
:10C42000000008020C02FE03FE03000200020000EE
:10C4300004038603C202620232021E030C030000E0
:10C4400004010603220222022202FE03DC01000094
:10C450006000700058004C02FE03FE034002000022
:10C460001E011E02120212021202F203E201000079
:10C47000F801FC03260222022202E003C0010000B0
:10C4800006000600C203E20332001E000E00000098
:10C49000DC01FE03220222022202FE03DC01000074
:10C4A0001C003E02220222022203FE01FC000000C8
:10C4B000000000000000980198010000000000004A
:10C4C000FA02FA02FA02FA02FA02FA02FA02FA028C
:10C4D000000020007000D8008C010603020200005A
:10C4E00090009000900090009000900000000000EC
:10C4F0000000020206038C01D8007000200000003A
:10C5000018001C000400440364033C0018000000F1
:10C51000F801040172027202F20284027800000043
:10C52000F003F8034C0046004C00F803F003000051
:10C530000202FE03FE0322022202FE03DC010000CF
:10C54000F800FC0106030202020206038C0100004F
:10C550000202FE03FE0302020603FC01F8000000D3
:10C560000202FE03FE032202720206038E03000093
:10C570000202FE03FE032202720006000E0000000B
:10C58000F800FC01060322022202E601EC0300008F
:10C59000FE03FE03200020002000FE03FE03000037
:10C5A000000000000202FE03FE0302020000000081
:10C5B000C001C00300020202FE03FE0102000000EF
:10C5C0000202FE03FE033000F800CE030603000063
:10C5D0000202FE03FE03020200020002000300004A
:10C5E000FE03FE031C0038001C00FE03FE030000D7
:10C5F000FE03FE031C0038007000FE03FE03000073
:10C60000F800FC01060302020603FC01F80000002A
:10C610000202FE03FE03220222003E001C00000074
:10C62000FC01FE03020282020203FE03FC01000081
:10C630000202FE03FE0322006200FE039C030000D0
:10C640000C011E03320222026202CE038C010000A2
:10C6500000000E000602FE03FE0306020E000000AC
:10C66000FE01FE03000200020002FE03FE010000C4
:10C670007E00FE00800100038001FE007E000000BD
:10C68000FE00FE038003E0018003FE03FE000000C5
:10C690000603DE03F8002000F800DE0306030000B6
:10C6A00000001E003E02E003E0033E021E00000008
:10C6B0008E03C603620232021E038E0300000000D6
:10C6C00000020003C002200218020402FE03000060
:10C6D000000022004200FE01FE0340022002000092
:10C6E00020001000080006000800100020002000B4
:10C6F000000020021002FC03FE03120022000000D2
:10C70000000000020002000200020002000200001D
:10C7100002020202020202020202020202020202F9
:10C72000C001E80328022802F801F003000200001B
:10C730000202FE03FE0120022002E003C00100000D
:10C74000E001F0031002100210023003200100008B
:10C750000000C001E00320022202FE03FE030000ED
:10C76000E001F0035002500250027003600100002B
:10C7700000002002FC03FE0322020200040000006D
:10C780003001780348024802F803F8010000000075
:10C790000202FE03FE0320001000F003E00300008D
:10C7A000000000000002F603F60300020000000093
:10C7B0000000000100031002F603F6010000000073
:10C7C0000202FE03FE036200F0009803080300006B
:10C7D000000000000202FE03FE0300020000000051
:10C7E000F803F8031800F0031800F803F003000042
:10C7F0000800F803F00308000800F803F003000045
:10C800000000F001F80308020802F803F00100003C
:10C810000802F803F00348024800780030000000E6
:10C820003000780048004802F803F80300020000D6
:10C830000802F803F0031802080018003000000096
:10C8400000001001380368024802D803900100007C
:10C8500010001000F801FC0310021003000100009A
:10C86000F801F80300020002F801F80300020000DA
:10C870000000F800F80100030003F801F8000000D0
:10C88000F800F803000380010003F803F80000003B
:10C8900008021803B001E000B0011803080200000C
:10C8A00038007802400240024002F801F80000001F
:10C8B00018038803C8026802380218030000000049
:10C8C000F80088008E032200FA02FA02FA02FA0245
:10C8D000000000000000FE03FE0300000000000056
:10C8E000FA02FA02FA02FA02FA020202FE03000057
:10C8F000F80088008E030202020202020202020213
:10C900002DE9F84317461C4601F10A039BB20A467B
:10C9100000F10A0189B200F0F3FF00250FF6FC498F
:10C920000B2000FB045039F810800026DFF8500C73
:10C9300048FA06F1C9074CBF391207F00F01001D74
:10C9400030F8110000F0D6FF761C0B2EEED36D1CD4
:10C950000B2DE5D300F0D0F801B0BDE8F04300F0B6
:10C96000CFBF2DE9F04182B00446884616461F46E7
:10C97000601E00F02CFE0B25002F14BF300906F0BE
:10C980000F00DFF8FC1B01EB400000F062F86D1EA9
:10C99000F2D1089D01E004196D1C287860B1009067
:10C9A0003B4632464146A0B200F064F82878212880
:10C9B0000CBF04200820EEE7BDE8F3812DE9F24F1B
:10C9C00000F04AF800F03CF80026DFF8B40B0AFA51
:10C9D00006F1090504D5002D0CBF4146494603E088
:10C9E000002D14BF4146494600F031F8761C0C2E4C
:10C9F000EBD3641C7F1C182FE4D3BDE8F18F2DE925
:10CA0000F24F00F029F800F01BF80026DFF8700B59
:10CA10000AFA06F1490504D5002D0CBF41464946E6
:10CA200003E0002D14BF4146494600F010F8761C83
:10CA30000B2EEBD3641C7F1C182FE4D3BDE8F18FC1
:10CA40003BF817A0BDF80010A0B200F051BF00EBFA
:10CA50004100808800F04EBF04461D460A983021F0
:10CA60000FF6104301FB003B00274FEA121802F0BB
:10CA70000F0970472DE9F04714461D4601F10A03DE
:10CA80009BB20A46C11D89B200F03AFF00264FEA68
:10CA9000141904F00F0A089C222C11D24FF0000840
:10CAA000212C08BF042E1DD00027DFF8D40A08FA75
:10CAB00007F149050AD5002D0CBF4946514609E04A
:10CAC000F1B22046FFF72AFC8046EDE7002D14BFA7
:10CAD00049465146FFF7BBFF7F1C0B2FE5D3761C61
:10CAE000082ED9DB00F008F8BDE8F04700F008BFD9
:10CAF0004C350020CC750020EF23002240F28F112E
:10CB0000002070472DE9F04F87B00024DFF8745AF9
:10CB10000DF10C080DF1100A05AE0DF11809DFF842
:10CB2000607AB7F93200B7F93010401AB7F92C1013
:10CB3000611AC21000EB127000114843DFF8481A66
:10CB400001EB800B002002A9415C815500EB8402BF
:10CB5000DFF8383AD25C00F80A2002ABC254002356
:10CB600000F80830531A03D500F80A10825511E076
:10CB700010D1C72A27BF012200F80820521C00F854
:10CB80000A2010F80A20022A39BF012100F80810F3
:10CB9000491E815500F8090010F80A10825D891AB3
:10CBA000062904DB10F80910091D00F80910401CC3
:10CBB0000428C8DBB4F5B37F00DC0CB900F0A2FE9A
:10CBC00004F10B00ADF8040005F5CA700090E00711
:10CBD00040F10F8100F09CFEF88BA5F89401A5F8B8
:10CBE0002403002010F80810C9B9411991F8301336
:10CBF00081B914E005EB4102B2F8943110F809C094
:10CC000007EB4C0CBCF804C04CEA0303A2F89431C7
:10CC1000491C8155815D10F80A208A42EAD2401CE5
:10CC20000428DFDBB5F83A0305EB4000B5F83E1306
:10CC300005EB4102B5F83C1305EB4103B5F838C3E9
:10CC4000398B012C1CBF40F2671E744511D1B3F81B
:10CC500094E141EA0E0EA3F894E1B2F894E141EABE
:10CC60000E0EA2F894E1B0F894E14CEA0E0EA0F892
:10CC700094E14FF0030E94FBFEFE0EEB4E0EB4EB70
:10CC80000E0E1BD195F82AE3BEF1000F05D1B3F8C3
:10CC900094E141EA0E0EA3F894E195F82B3323B901
:10CCA000B2F894310B43A2F8943195F829232AB9AC
:10CCB000B0F894214CEA0202A0F894213A8D3B8C02
:10CCC000944216D195F82C0358B9012005EB400C7D
:10CCD000BCF894E143EA0E0EACF894E1C01CC928FC
:10CCE000F4DBA5F82433A5F82233A5F89631A5F88E
:10CCF0009431501E844219BF501C8442A5F824333D
:10CD0000A5F89431B5F83423944204BF95F82D0367
:10CD100000280BD1012005EB4003B3F894C141EA90
:10CD20000C0CA3F894C1C01CC928F4DBB5F8363349
:10CD30009C420FD195F82E0370B9012005EB400CF1
:10CD4000BCF894E141EA0E0EACF894E1C01CC9288D
:10CD5000F4DB01E0944207D1A5F82413A5F82213CF
:10CD6000A5F89611A5F89411501E84421CBF501CC2
:10CD7000844205D0581E84421CBF581C844203D1F3
:10CD8000A5F82413A5F8941195F82803F8B9B7F974
:10CD90002C0084421BDBB7F92E00844217DAB7F966
:10CDA00030000FE0002100F073F905D200F078F9AF
:10CDB00005EB4202A2F89431891C2029F3DB0BF128
:10CDC000040B1030B7F9322001B29142EADB00F0D7
:10CDD00099FD601CB0F5B47F29460CBF07F11E0019
:10CDE00007F1140000F0CCFD00F064F9C9210098AF
:10CDF00038E100F08DFD1E2094FBF0F01E2101FBB8
:10CE0000104040B9052047F6EF3125F81010401DBD
:10CE1000C828FADB0EE0062094FBF0F0062101FBA7
:10CE2000104038B9192047F6EF3125F810101930A5
:10CE3000C828FADBF88B2880A5F89001002C18BFD1
:10CE4000B4F5B47F1CD0002010F80810A9B941191E
:10CE500091F8301361B910E035F8112010F809305D
:10CE600007EB43039B881A4325F81120491C815581
:10CE7000815D10F80A208A42EED2401C0428E3DBD0
:10CE8000B5F83A03B5F83E23B5F83C33398B4FF08B
:10CE9000030C94FBFCFC0CEB4C0CB4EB0C0C1ED107
:10CEA00095F82AC3BCF1000F05D135F813C041EA4B
:10CEB0000C0C25F813C095F82BC3BCF1000F01D161
:10CEC00000F0DFF895F829C3BCF1000F07D135F861
:10CED00010C0B5F838E34EEA0C0C25F810C0002C51
:10CEE00018BFB4F5B47F38D105EB430CBCF802E0B1
:10CEF00041EA0E0EACF802E035F813E041EA0E0EFE
:10CF000025F813E03CF8023C0B432CF8023C05EBFF
:10CF10004203B3F802C041EA0C0CA3F802C000F0CF
:10CF2000B0F833F8022C0A4323F8022C05EB400238
:10CF30005388B5F838C34CEA0303538035F81030F2
:10CF4000B5F838C34CEA030325F8103032F8020C68
:10CF5000B5F83833184322F8020C3A8D3B8C9442D2
:10CF600012D195F82C0348B9012035F810C043EAD6
:10CF70000C0C25F810C0C01CC928F6DBA5F89031B0
:10CF8000A5F88E316B802B80501E844219BF501C37
:10CF90008442A5F890312B80B5F83423944204BF25
:10CFA00095F82D03002808D1012035F810300B43E7
:10CFB00025F81030C01CC828F7DBB5F836339C4282
:10CFC0000DD195F82E0360B9012035F810C041EA63
:10CFD0000C0C25F810C0C01CC828F6DB01E09442F8
:10CFE00005D1A5F89011A5F88E1169802980501EF1
:10CFF00084421CBF501C844205D0581E84421CBF72
:10D00000581C844202D1A5F89011298095F8280374
:10D01000E8B9B7F92C00844219DBB7F92E00844235
:10D0200015DAB7F930000DE0002100F031F803D235
:10D0300000F036F825F81230891C2029F5DB0BF1B9
:10D04000040B1030B7F9322001B29142ECDB00F052
:10D0500059FC009907F1140000F092FC00F02AF846
:10D06000C921284600F050FC641CB4F5B47F7FF75A
:10D0700058AD294607F11E0000F082FC07B0BDE85C
:10D08000F08F35F812C041EA0C0C25F812C0704739
:10D0900001EBD17200EB620212B2531EC72B704734
:10D0A000DBF80030CB4003F0030305EB4303B3F898
:10D0B000403370470E21BDF8040000F019BC2DE983
:10D0C000F84F05465020DFF8C82400FB052A8846A3
:10D0D000DFF8AC74042D09D2BAF93800C628BEBFF7
:10D0E00007EB8800B0F93400C62856DA002407EBB5
:10D0F000880901E0072C25DA042D08D2C5EBC5000C
:10D100000FF2F4414018265CBAF9380005E00FF23E
:10D11000E8402018067FB9F9340000F1090100F059
:10D1200045F84FF0080BF0074EBFB88A381D30F8AD
:10D13000180000F0DFFB7608BBF1010BF3D100F023
:10D140002EF827E0042D12D2BAF9380000F02CF89E
:10D15000BAF938000019C61CB6B2BAF9380018304E
:10D16000001B864216DA00F01AF8761CF4E7B9F9CB
:10D17000340000F019F8B9F934000019C61C02E0B7
:10D1800000F00DF8761CB6B2B9F934001830001B67
:10D190008642F5DB641C0B2CACDBBDE8F18F381D3F
:10D1A00030F8180000F0A6BB0019C11C89B2A0B26B
:10D1B00000F09EBB2DE9F04100F0AAFB0025DFF84E
:10D1C000C0430C21A8B200F093FBCB2600F0D7F8A7
:10D1D000761EFBD16D1C0B2DF3DBDFF8B453B5F9D4
:10D1E000100018B100210020FFF769FFB5F96000B9
:10D1F00018B101210120FFF762FFB5F9B00018B1A5
:10D2000002210220FFF75BFFB5F9000118B10321ED
:10D210000320FFF754FFDF4E307918B900210720B3
:10D22000FFF74DFF3079012803D101210720FFF7D7
:10D2300046FF3079022831BF207021780720FFF7A0
:10D240003EFF0C214FF4BA7000F052FBCB2700F0E8
:10D2500096F87F1EFBD10B2700F08DF800F08FF8B9
:10D26000D52100F089F800F08AF87F1C40F2751093
:10D270003FB28742F0DB371D388E00F076F84FF072
:10D28000050800F07FF8B8F10108FAD1B6F84800B7
:10D2900000F06BF84FF0050800F074F8B8F10108E1
:10D2A000FAD1388E00F071F8052700F06BF87F1E78
:10D2B000FBD1B6F8480000F068F8052700F062F8E6
:10D2C0007F1EFBD1B6F8AC0008B95A2014E006F175
:10D2D000AC01B14A012805D1C88A32F810004008D3
:10D2E0005A3809E0022808D1C88A32F810105A3991
:10D2F000AA4A32F81000081A6085608DB5F9C81185
:10D300001E2202FB1100208506F14805B5F9140024
:10D3100000F10B0636B2B71E09E000F02CF800F061
:10D3200031F8D62100F028F800F02CF87F1CB01C52
:10D330003FB2B842F1DAB5F9280000F10B052DB281
:10D34000AE1E0CE00C21B0B200F0D2FA00F01AF8D8
:10D35000D621B0B200F0CCFA00F014F8761CA81C6C
:10D3600036B2B042EEDABDE8F08100F10C0189B2CC
:10D370000A2000F0BDBA0C21B8B200F0B9BAA08AF8
:10D3800000F0B8BA208B00F0B5BA00F10C0189B2F8
:10D390004FF4BA7000F0ACBA2DE9F84FE22400F077
:10D3A000B1FAD821E22000F0A3FA0C2640F21F586F
:10D3B00000F016F9761EFBD1D821E32000F098FA90
:10D3C0000C2600F00DF9761EFBD1D8214FF4C67063
:10D3D00000F08EFA0C2600F003F9761EFBD1D8215E
:10D3E00040F28D1000F084FA0C2600F0F9F8761E59
:10D3F000FBD1E4260FF2F0190025D821A81900F07E
:10D40000E6F800270120B84039F81510084214BF8B
:10D410004046002000F06EFA7F1C0C2FF2DB6D1CE2
:10D42000082DEADB083640F28B1130B28842E3DB8C
:10D430004FF08808A826DFF8589100F0B1F800F006
:10D44000C5F809274FF6FF7500F0C4F87F1EFBD121
:10D4500000F0A6F8F43000F0BAF8092700F0BAF8A6
:10D460007F1EFBD1D82100F0ABF800F0B3F8E1212A
:10D4700000F0A6F800F0AEF87F1C102FF2DB454854
:10D48000B0F8AC1000F1AC05434F09B9E82413E043
:10D49000012905D1E88A37F8100040085A3809E018
:10D4A000022909D1E88A37F810105A393B4A32F874
:10D4B0001000081A00F07BF8E88A00B9E824E2219D
:10D4C000601E00F084F84FF6E07A00F086F800F075
:10D4D00084F8E221A01E00F07AF800F07EF800F057
:10D4E0007CF8D821A0B200F003FA4FF00C0B00F04A
:10D4F00074F8BBF1010BFAD1D821601C00F067F879
:10D500004FF00C0B00F069F8BBF1010BFAD1E221EE
:10D51000A01C00F05CF800F060F800F05EF8E2217A
:10D52000E01C00F054F800F058F800F056F8E88AD3
:10D53000698A88421BD237F8100000F038F8D821E9
:10D54000A0B200F0D5F94FF00C084FF4FC6000F0E9
:10D55000D1F9B8F10108F8D1D821601C00F037F8F2
:10D560000C244FF4FC6000F0C5F9641EF9D109F5F4
:10D57000E470817D01F0FD018175BDE8F18F00004F
:10D580004C350020542D0020CC7500203C9D0020FF
:10D590000020002010240020AC3300209C35002007
:10D5A000D821B9F9C801704390FBF8F070471E21EB
:10D5B00090FBF1F0704390FBF8F000F1E504704748
:10D5C000B9F9C801704390FBF8F03818E53080B223
:10D5D00000F08EB9284600F08DB9504600F08AB9A7
:10D5E000404600F087B90000200040008000400065
:10D5F0002000100008001000000042FE02000000A1
:10D60000468A9292620000448292926C000018282E
:10D610004AFE0A000040407E40400000000000003A
:10D62000000000007000FF03700000000000000018
:10D63000000000000200040008007000700070008C
:10D6400080000001000200002000200020002000D7
:10D6500070007000700020002000200020000000FA
:10D6600000020001800070007000700008000400DB
:10D670000200000000000000200020002000200028
:10D680001800040002000200040018002000C0007E
:10D690000001000200020001C00020002000200064
:10D6A00020000000000000040003C00030000C0057
:10D6B00002000C003000C000000300040003C000A2
:10D6C00030000C0002000C003000C0000003000419
:10D6D00000000000000000000004000200018000C3
:10D6E0004000200010000800FC07000400020001B8
:10D6F00080004000200010000800FC07000000002F
:10D70000000000000000000200020002F803080010
:10D71000080008000800F8030002000200020002EE
:10D72000F8030800080008000800F80300020002DF
:10D7300000020000000020002000400080010002E4
:10D7400000040004000280014000300008000800CE
:10D7500010006000800000018000400020004000B8
:10D760004000000000000000000002000200020073
:10D7700002000200120032006200FE03600230026A
:10D78000100200020002000200020002000000007D
:10D790000000000000000000000200020002000281
:10D7A00000020002400260023002FE03320062000A
:10D7B000420002000200020002000200000000001D
:10D7C000000000000000FE0702000200020002004C
:10D7D0000200FE07000420040004200400042404C6
:10D7E0000C043C040C042404000420040004200461
:10D7F000000000000000FF03010001000100010023
:10D800000100FF0300021002000210020002900259
:10D81000C002F002C00290020002100200021002D8
:10D82000000000000000000002004200F201E200DF
:10D830004200FE0300020002000200020002000299
:10D8400000020002FE034200E200F2014200020078
:10D8500000000000000000000000040004000400BC
:10D860000400FC074004E004F00540044004F00517
:10D87000E0044004FC070400040004000400040069
:10D880000400000000000000000210027C023802C8
:10D890001002FE0302000200020002000200020069
:10D8A00002000200FE03100238027C021002000295
:10D8B0000000000000000000000200020002000260
:10D8C0000002FE0322007200FA0022002200FA0089
:10D8D00072002200FE0300020002000200020002A9
:10D8E00000000000F6F78CBCF6F78CBCF6F78CBC99
:10D8F000F6F78CBCF6F78CBCF6F78CBCF6F78CBC54
:10D90000F6F78CBCF6F78CBCF6F78CBCF6F78CBC43
:10D91000F6F78CBCF6F78CBCF6F78CBCF6F78CBC33
:10D92000F6F78CBCF6F78CBCF6F78CBCF6F78CBC23
:10D93000F6F78CBCF6F78CBCF6F78CBCF6F78CBC13
:10D94000F6F78CBCF6F78CBCF6F78CBCF6F78CBC03
:10D95000F6F78CBCF6F78CBCF6F78CBCF6F78CBCF3
:10D96000F6F78CBCF6F78CBCF6F78CBCF6F78CBCE3
:10D97000F6F78CBCF6F78CBCF6F78CBCF6F78CBCD3
:10D98000F6F78CBC2DE9F84FFFF7BCFF0024DFF859
:10D99000088CDFF8489D09F21445DFF8446D09F260
:10D9A000344A09F2F047142000FB049101F21040C0
:10D9B00090F804B0027C92075BD5002202749AF8BA
:10D9C000082023000AD0A31E012B17D99B1E012B70
:10D9D00020D9083B24D09B1E3ED040E099F8340467
:10D9E00040F0020089F834046889401DC0B20090FC
:10D9F000002338F81B2000F06EF83AE089F8F02494
:10DA000000F076F8BBF1020F33DA0220387389F8A0
:10DA100010052EE000F06CF8022089F8380528E0A7
:10DA200001F026F9502101FB029101F02BF906F1DA
:10DA3000140001F07DFA06F1160000F068F8FEF718
:10DA400090FF307D00EB4000484400F5AF6000F0EF
:10DA50005EF8283080B20AE001F034F909E000F005
:10DA60003FF8002338F81B20D2B24179C088FEF776
:10DA700078FF641C0F2C96DBB07BDFF8704D411EE5
:10DA8000C9B20A290FD2142101FB009101F2104002
:10DA900000F026F82378017938F81120D2B24179C4
:10DAA000C088FEF75EFFB07B002804BF707B0228B1
:10DAB0000AD16889401DC0B20090237899F81404F7
:10DAC00038F8102000F007F8002000F019F9BDE840
:10DAD000F14FFFF717BFD2B269786888FEF76EBFC3
:10DAE000C28902EB8202D1F81014511800917047DC
:10DAF000C28902EB8202D1F8101451180091002360
:10DB000038F81B20D2B24179C088FEF72ABF0090B6
:10DB100000239AF81C0038F81020D2B2797DF88AD8
:10DB200070472DE9F84F00F063F8DFF8B80B4FF4B9
:10DB300096710180DFF8B00BCC210180DFF8AC0BCF
:10DB400006210180DFF8A80BC62101800220FEF724
:10DB500076FB0024DFF89C5BDFF8846BDFF8988BA2
:10DB6000DFF8F47C042038806042000100F1AA094B
:10DB7000A8F80090B07B844207BF4FF0010AD3465B
:10DB80004FF0020A4FF0000B0C2060434119097955
:10DB90000B22405902FB010259465046FEF740FB5A
:10DBA000601E0A2816D2B07B844213D1032100A83C
:10DBB00001F0D0FCB07B825D0FF22C0100A801F0D7
:10DBC000DDFC4A203880A8F8009000AA594650464B
:10DBD000FEF726FB641C0B2CC4DBFEF793FFFFF75C
:10DBE00091FEBDE8F18F0000253032640000000096
:10DBF000DFF8FC0B0021017041F27071DFF8540D69
:10DC000001F0A8BCF8B5DFF8E80BDFF8D41A497CBE
:10DC100011B90121017033E0FFF7ECFFDFF8C80A0A
:10DC20004FF4807100F0D8FD02210180DFF8C00AB6
:10DC3000922101800220FEF702FB0024DFF81C5C29
:10DC4000DFF8B46ADFF8107C0121042038806042DC
:10DC500000017C3030800C2000FB04F2531918794D
:10DC6000401CC0B2042824BF032000215B7903EBD1
:10DC7000830352599A18FEF7D3FA641C082CE3DB8D
:10DC8000FEF740FFBDE8F140FFF73CBEF8B50027C6
:10DC9000DFF804490C26DFF8C45B06FB07F14819DE
:10DCA000C27A920710D50022C272427902EB820238
:10DCB0004959511800910023017934F81120D2B24A
:10DCC000817AC088FEF74DFE7F1C092FE5DBDFF867
:10DCD000100A807B092812D270434619717901EB32
:10DCE0008101405908180090DFF8000B0378307963
:10DCF00034F81020D2B2B17AF088FEF732FEF1BDCE
:10DD00002DE9F14F94B0002628208DF8010012A8CB
:10DD10000FF2E461052201F05BFC10A80FF2DC6158
:10DD2000062201F055FC8DF800600024DFF8AC09F4
:10DD3000B0F9B4511427DFF8209CD9F8000007FB94
:10DD40000500DFF8181C097800290CBFC089B0F85D
:10DD500072000990012005900890C5F115000FF29E
:10DD6000A46252F82020D317CDE90E230FF2EC6203
:10DD700052F82020D317CDE90C23002C04D8032817
:10DD800038BFDFF8DC0B0ED3002C04D80C2838BFCA
:10DD9000DFF8D00B07D3002C04D8152838BF4FF478
:10DDA0007A7000D30120CDE906044FF0030B092D52
:10DDB00005D2C5F10B0000F057FC059004E0A5F179
:10DDC000090000F051FC0890B5FBFBF000EB4000AF
:10DDD000281AD9F8001007FB0010D0F8C410DFF89B
:10DDE000149CDFF8F808B0F924009DF850200A923E
:10DDF0000C23DFF8688A03FB0285DFF8FC2B12880E
:10DE0000ADF80820DFF8642C1288ADF80620DFF8A2
:10DE1000602C1288ADF80420DFF8582C1288ADF879
:10DE20000220DFF8542C1288ADF80E20DFF84C2CBD
:10DE30001288ADF80C20DFF8482C1288ADF80A20C3
:10DE4000DFF8402CB2F800B0DFF83C2C1288ADF8B7
:10DE50001220DFF8382C1288ADF81020DFF8302CB3
:10DE60001288DFF8303C1B8895F805E0BEF10B0FF7
:10DE700029D8DFE81EF00C001A0029004F008600A8
:10DE8000BE00E0003001AB01CF014E020D020620C2
:10DE9000FFF752FD4FF47A714143DFF8600D01F056
:10DEA00047F8DFF83C08007D0DE10222DFF830087A
:10DEB00090F8300000F07F0100F069FB0DF1400A9E
:10DEC00010208DF801005CE2297991B9DFF8C84B88
:10DED000DFF8A81D00F071FB00F026FB01F0A8FBA5
:10DEE00002D200F0B6FB04E000F073FB227800F0F1
:10DEF00021FB2879012861D1DFF8A04B00F0FCFA62
:10DF000000F05BFB00F010FB01F092FB66D300F029
:10DF1000F8FA2EE02979A9B9DFF8844BDFF85C1D07
:10DF200031F81000A15F00F04BFB00F0A2FB01F004
:10DF30007FFB02D200F08DFB04E000F04AFBA25E02
:10DF400000F0F8FA2879012838D1DFF8B44C00F055
:10DF5000D3FA31F81000B4F9001000F031FB00F0F2
:10DF600088FB01F065FB39D300F0C6FA31F81010D8
:10DF7000A25E514301F500714A1201EB92518912E0
:10DF80008EE0DFF8804C2879002815D1DFF8788CF6
:10DF900000F0BFFA00F0AAFA00F0EFFA00F069FB17
:10DFA00001F046FB02D200F054FB05E000F0B1FAAC
:10DFB00000F09CFA00F0F2FA2879012878D1DFF815
:10DFC000C05C286800F0A7FAB9F95010DFF8C82C37
:10DFD00000F0D3FA00F04DFB01F02AFB4CD3286887
:10DFE00000F099FAB9F95010DFF8AC2C00F0D6FA2D
:10DFF0005EE0297900290DD1DFF8A04C00F014FB78
:10E0000000F037FB01F014FB02D200F022FB01E02C
:10E0100000F0E7FA287901284AD1B9F95000DFF871
:10E02000804C00F097FA00F011FB00F022FB01F0A9
:10E03000FFFA21D324E0297900290DD1DFF8644CBF
:10E0400000F0F2FA00F015FB01F0F2FA02D200F053
:10E0500000FB01E000F0C5FA2879012828D1B9F9C0
:10E060005000DFF8444C00F075FA00F0EFFA00F0D1
:10E0700000FB01F0DDFA03D2002600F0EAFA17E017
:10E0800000F03FFA514301F50071DFF8E82C8256A9
:10E090004B1201EB935102EBA121B9F96420891ACB
:10E0A000DFF8D42C126807FB0020006900FB01F6A2
:10E0B0003146DFF8480B00F03BFFDFF82406007D17
:10E0C0009DF80010081800EB4000DFF8101640180B
:10E0D00000F2785A55E12F791E200FBBBDF80210CF
:10E0E0000A2961D39BFBF1F105295DDBBDF8021024
:10E0F0004843C117DDE90623A2FB004802FB018863
:10E1000003FB0088DDE90C23A2FB040102FB0811DC
:10E1100003FB0411DDE90E2301F0A2FA5A463DE0AB
:10E12000012F12D1BDF804100A293DD3BDF80A1001
:10E13000BDF8042091FBF2F1052935DB00F0C1F9AF
:10E1400001F08EFABDF80A2028E0022F12D1BDF8A6
:10E1500006100A2928D3BDF80C10BDF8062091FB43
:10E16000F2F1052920DB00F0ACF901F079FABDF8F5
:10E170000C2013E0032F17D1BDF808100A2913D380
:10E18000BDF80E10BDF8082091FBF2F105290BDB5C
:10E1900000F097F901F064FABDF80E20002301F0B9
:10E1A0005FFA840A44EA81542246DFF8501ADFF805
:10E1B000CC0B01F07DF8DFF82805007D00EB800036
:10E1C000DFF81C15401800F1340ADAE02F7927B97E
:10E1D0000BFB01F0BDF8021016E0012F05D1BDF8D0
:10E1E0000A004843BDF804100EE0022F05D1BDF827
:10E1F0000C004843BDF8061006E0032F06D1BDF819
:10E200000E004843BDF80810B0FBF1F600F052F9DB
:10E2100078D2AAE02F79DFF8680B4FB95843DFF8BE
:10E22000641B00F0FDF9BDF802109BFBF1F128E042
:10E23000012F09D15043DFF8501B00F0F1F9BDF870
:10E240000A10BDF804201AE0022F0BD1BDF81010FF
:10E250004843DFF8381B00F0E3F9BDF80C10BDF8B7
:10E2600006200CE0032F0ED1BDF812104843DFF852
:10E27000201B00F0D5F9BDF80E10BDF8082091FB69
:10E28000F2F190FBF1F600F080F90DF1480A78E028
:10E290002F793FB90BFB01F0BDF80220B0FBF2F083
:10E2A000594329E0012F0AD1BDF80A004843BDF8BF
:10E2B0000430B0FBF3F05143B1FBF3F11EE0022F49
:10E2C0000CD1BDF80C004843BDF80620B0FBF2F0BD
:10E2D000BDF810205143BDF806200DE0032F0ED1EC
:10E2E000BDF80E004843BDF80820B0FBF2F0BDF8C1
:10E2F00012205143BDF80820B1FBF2F1461A00F09C
:10E30000D9F832D30846B102099A91FBF2F1484399
:10E3100027E02F7927B903FB01F0BDF8021015E0C3
:10E32000012F04D102FB01F0BDF804100EE0022F12
:10E3300005D1BDF810004843BDF8061006E0032FD4
:10E3400006D1BDF812004843BDF80810B0FBF1F645
:10E3500000F0B0F809D3084670430999B0FBF1F01A
:10E3600080020899B0FBF1F601E04FF0004600F0A2
:10E370000CF9DB48007D00EB4000D849401800F262
:10E38000845A9DF80140D648407C012819D1DFF815
:10E39000C854242028800A984042000100F17C06DD
:10E3A000D54F3E80DFF8D42900210220FDF738FF49
:10E3B00004F1240028803E80524600210220FDF70F
:10E3C0002FFF9DF85000A0B90FF63435DFF8AC09E7
:10E3D000009000F042F90021C820FEF7C2FACDF803
:10E3E00000A000F03AF9194604F1C80080B2FEF727
:10E3F000B8FA15B0BDE8F08F252020002F536563D3
:10E400002E00000064000000C8000000F4010000BD
:10E410000100000002000000050000000A000000EA
:10E42000140000003200000064000000C80000007A
:10E43000F4010000010000000200000005000000DF
:10E440000A00000014000000320000006400000018
:10E45000C8000000F401000001000000F600000008
:10E46000EC0100006602000033030000D703000047
:10E47000000400000004000000040000000400008C
:10E48000000400000004000000040000000400007C
:10E49000000400000004000000040000000400006C
:10E4A000000400000004000000040000000400005C
:10E4B000000400006FF000400599B0FBF1F0B0429D
:10E4C00070475043C117DDE90623A2FB004802FB59
:10E4D000018803FB0088DDE90C23A2FB040102FB99
:10E4E000081103FB0411DDE90E2370477B49B1F9E4
:10E4F0002410DFF888277047B9F95000DFF8981723
:10E500007047B9F95000DFF8901731F810102278F1
:10E510007047D8F800007149B1F8D21434F81110DE
:10E52000B0FBF1F000F0A6BF21F000410022DFF8BF
:10E5300064387047514301F500714A1201EB925162
:10E540008912DFF83428126807FB0020006900FBFD
:10E5500001F67047DFF8401731F810102278514368
:10E5600001F50071DFF80C2880564A1201EB925138
:10E5700000EBA120B9F96410704732F8111048433C
:10E5800000F50070800A01F0EDB804223146DFF892
:10E590006C0600F0ADBD0000F4EE000832F811206A
:10E5A000504300F50070800ADFF8CC27126807FBA3
:10E5B0000121096901FB00F6704731F8100021784C
:10E5C000484300F50070411200EB9150801201F0B9
:10E5D000BFB84248B0F92400DFF8A01631F8101097
:10E5E00070473E48B0F92400DFF8901631F810105B
:10E5F0002278514301F50071DFF89C2782564B12B7
:10E6000001EB935102EBA121B9F91420891ADFF82B
:10E610006827126807FB0020006900FB01F67047BD
:10E62000098890FBF1F07047DFF8501631F81010B0
:10E630002278514301F50071DFF85C2780564A12B9
:10E6400001EB925100EBA120B9F91410401A01F02E
:10E650007FB802208DF80000704700237F480079C2
:10E6600035F81020D2B27047B0FBFBF0C0B200F01A
:10E670004DBC21F0004100224FF08043704710B59F
:10E68000174C012161735A49012804D01ED3032875
:10E6900018D005D31AE0607C00F0FE00607413E02F
:10E6A000A07B1421DFF8F42601FB002191F820243F
:10E6B00042F0020281F82024E0730F20A073FFF7DC
:10E6C00061F903E00020A07401200870012000F02F
:10E6D0009EFABDE81040FFF715B9000000200020A9
:10E6E000FC3400207A350020783500207C3500206D
:10E6F0007E3500201033002072350020F8B5DFF899
:10E70000A046012804D066D303285BD037D3F1BDDF
:10E71000FFF76EFA00202074042060730020A073BD
:10E720004E4C0220E072DFF87C064FF4A07100F03E
:10E7300053F804210180DFF8700694210180012044
:10E74000FDF77DFDFEF7DEF9FFF7DCF800250FF29F
:10E75000A4760C2068430719797901EB81010059EF
:10E76000081800900023387936F81020D2B2B97A10
:10E77000F888FEF7F6F86D1C092DEADBF1BD0220E2
:10E780006073E07BA0731421DFF8102601FB0020EA
:10E7900090F8203443F0020380F82034E07C031921
:10E7A00093F82030502505FB002001FB0300817CFD
:10E7B00041F0020181740120207300F051F8002023
:10E7C0002073F1BD60730020A073DFF8E005017ACB
:10E7D00041F002010172F1BD0180DFF8D4054FF470
:10E7E000B4710180DFF8CC0570470000AAA30020B7
:10E7F0007C300020F8B5DFF8A44504F214400FF295
:10E80000F4654189491DC9B20091002394F814149C
:10E8100035F81120D2B241784088FEF7CFF80126B2
:10E82000142000FB064000F21047F98901EB81013A
:10E83000D0F81004081800900023387935F810201B
:10E84000D2B27979F888FEF78CF8761C0C2EE7DBCB
:10E85000BDE8F140FFF796B87035002090340020F5
:10E860002DE9F84FFFF74EF800240A25DFF8488518
:10E87000DFF828950026502000FB0497142000FBA9
:10E8800006F1C819827C920746D500228274DFF80F
:10E890001025137B002B04BFD37CA34206D120326A
:10E8A000A25CB24208BF98F800A001D04FF0000A65
:10E8B000042C06BF002E99F850B14FF0000B042C29
:10E8C00003DADFF8F8243B8AA354827A002A18BFBF
:10E8D000102A0BD0202A02D0402A02D01CE0C959AD
:10E8E00001E000F041F800F045F815E000F03CF8D8
:10E8F00000F040F8062C08BF002E0DD1388AC0B2B7
:10E9000000905346786830F81B20D2B2B97BB889A2
:10E910001C3080B2FEF773F8761C032EAEDB641C4D
:10E92000072CA7DBDFF89804417901EB810102682D
:10E9300089180091002300790FF2B85131F81020A6
:10E94000D2B20021AE20FEF70CF80020BDE8F24F55
:10E95000FFF7D6B9CC750020103400209433002086
:10E9600000CA9A3B40420F00B0F91020C95905FB7C
:10E970000211704700915346416831F81B20D2B212
:10E98000817B8089FDF7EDBF2DE9F04100270A2446
:10E990001425DFF80884DFF8E00300F02FF800F218
:10E9A000945000F0EDFE7F1CBFB2DFF8180406683B
:10E9B000B088411C8F42EEDBA8F81C00B6F90400B9
:10E9C000A8F86C000020A8F8BC00A8F80C010027EB
:10E9D000DFF8F40300F012F800F22C6000F0D0FE33
:10E9E0007F1CBFB2F088811D8F42F1DBA8F8AC011B
:10E9F000BDE8F081242000208AA30020006805FBE8
:10EA0000070104FB0780704710B582B00620FEF7AF
:10EA100093FF80B2002140F6B9329042A8BF012195
:10EA200040F6AD529042A4BF491C89B240F63D72F7
:10EA30009042A4BF491C89B241F205029042A4BF92
:10EA4000491C89B2D54800F5AA740A22D0F85401AD
:10EA500002FB010000900023606830F81120D2B260
:10EA6000A17BA089FDF77DFF13BD000088A30020D6
:10EA700086A3002084A3002072A3002070A300209E
:10EA80006EA300206CA300207AA3002078A30020AE
:10EA900076A3002074A3002066A3002067A30020B3
:10EAA0008CA30020F8B5002640F2FF75BB48BC4C93
:10EAB000A17B0A2914D8DFE801F006242C34485041
:10EAC00058636B757E000FF2B030009000232A4629
:10EAD00019464FF48570FEF729FF01F08DFB0646BD
:10EAE000002E71D00FF2E830009000232A4600215A
:10EAF0004FF48570FEF71AFF4FF4FA6000F011FA38
:10EB00006EE00FF2843000F085F8607800F00CFFC2
:10EB1000E5E70FF2803000F07DF8A07800F0F7FF15
:10EB2000DDE70FF27C3000F075F8A84F012000F00F
:10EB30006DF8FEF7E7FEE07800F05DFF0646002086
:10EB400000F064F8FEF7DEFECAE70FF2603000F076
:10EB500061F8207901F055F9C1E70FF25C3000F05F
:10EB600059F8607900F0A3FEB9E70FF2583000F0D1
:10EB700051F8A07901F05FF80646FFF771FEAFE7A4
:10EB8000E179A0F84815481C0A214143022006E01B
:10EB9000217A00F5A960818201EB81010320FEF753
:10EBA000C7FE05E0607A60863C21484388490880BA
:10EBB000BDE8F14054E60320FFF761FDA07A01F0C3
:10EBC000E9FCBDE8F14015E64FF4FA7000F0A9F950
:10EBD000A07B072801D30A2802D1015D491C0155F9
:10EBE0000FF2FC20009000232A4600214FF484708D
:10EBF000FEF79CFEBDE8F140FEF793BF1035002004
:10EC00008EA30020AC3300209CA300203870207419
:10EC1000FDF778BF009000232A4619464FF486700E
:10EC2000FEF784BE70B582B05D4C5C4D00F020F8FC
:10EC300095F83C14502202FB015100F023F804F136
:10EC4000140000F075F90FF2AC2604F1160000F084
:10EC50002DF8FDF786FE207D00EB4000401900F501
:10EC6000AF6000F023F8283080B2FDF77AFE73BD64
:10EC70005848008858490988401A7047B83300201E
:10EC8000A0A30020B1F9241014223B4B1B6802FB07
:10EC90000131096941437047CC33002068A300204B
:10ECA00069A300206AA300206BA30020009000232A
:10ECB00095F83C0436F81020D2B295F80515B5F851
:10ECC000060570472DE9F84301270126DFF8CC80BF
:10ECD000B8F9B44100254FF00309032CB8BF012552
:10ECE00010DB092C07DAC4F10B0090FBF9F0FFF7F9
:10ECF000BDFC074606E0A4F1090090FBF9F0FFF720
:10ED0000B5FC064694FBF9F000EB4000201A1421F4
:10ED10002D4A126801FB0020D0F8C400B8F8801416
:10ED2000B8F86C24891A48436FF0004191FBF7F260
:10ED30004FF00041012801DB824200E0C242A4BF43
:10ED4000784390FBF6F1164E06F1140000F0F0F84F
:10ED500006F1160000F042F8FDF703FE307D28189A
:10ED600000EB4000404400F2845000F037F82830B7
:10ED700080B275E0EC330020C8A3002012350020DB
:10ED8000A08601007CA300207EA3002080A3002099
:10ED900082A3002000001440E03300200020002067
:10EDA000FC340020783500207E3500201033002010
:10EDB0007A3500207C350020AAA300208430002072
:10EDC00090340020CCA30020103400207C300020A0
:10EDD000B2A3002090300020923000200090002349
:10EDE0008E2298F82D15B8F82E0570472DE9F843B6
:10EDF00089461446074D142101FB04560FF2F4080E
:10EE000000F032F800214FF48A70FDF7AAFD024F9E
:10EE100004E000BF00200020FC340020494607F138
:10EE2000140000F085F807F1160000F01DF81946EF
:10EE30004FF49170FDF795FD96F8140438F8102002
:10EE4000387D00EB40004019042C34BF00F5AF6062
:10EE500000F2845000900023D2B200214FF4A5703C
:10EE6000FDF77FFDBDE8F1830090002396F81404C0
:10EE700038F81020D2B27047506172616D657465C8
:10EE80007220536176650000536176652044617499
:10EE900000000000536176652042756600000000A6
:10EEA0005361766520496D61676500005361766541
:10EEB00020437376202000004C6F6164204461740D
:10EEC0002E2E2E004C6F6164204275662E2E2E0071
:10EED0004C6F61642046696C65204661696C210055
:10EEE0002020202020202020202020202020202022
:10EEF0000000000080008100820083008A008E00F4
:10EF00000800180028003800A800E800012101E0EE
:10EF10000A2251430246501ED2B2002AF8D10846B6
:10EF20007047DFF80C16088008880028FCD170476D
:10EF3000F0B50325821C831C11F1004F10D1202154
:10EF400011702E2102F8011F202102F8011F02F882
:10EF5000011F02F8011F002102F8011F042110E027
:10EF600091B92B211170302102F8011F2E2102F8D6
:10EF7000011F302102F8011F02F8011F002102F8D1
:10EF8000011F01700521B1E0012903DB2B2402F8E8
:10EF9000014B03E02D2402F8014B49420E460027A5
:10EFA0004FF0050C0A2406E0B6FBF4F67F1C042F94
:10EFB00028BF04FB0CFC0A2EF6D2032F28BF6144A5
:10EFC0000F46002602E0B7FBF4F7761C0A2FFAD2B0
:10EFD0000327B6FBF7F70770092E00F28180DFE800
:10EFE00006F07A706555493D2C201405DFF844651C
:10EFF00091FBF6F707F1300502F8015B022506FBED
:10F0000017112E2602F8016B0026DFF82C7591FBF4
:10F01000F7FC0CF1300E02F801EB6D1E60D007FB1F
:10F020001C11DFF8187591FBF7FC0CF1300E02F89B
:10F0300001EB6D1E54D007FB1C11DFF8047591FB2A
:10F04000F7FC0CF1300E02F801EB6D1E48D007FB07
:10F050001C111EB12E2602F8016B0026DFF8E474A5
:10F0600091FBF7FC0CF1300E02F801EB6D1E37D06E
:10F0700007FB1C1142F2107791FBF7FC0CF1300EEC
:10F0800002F801EB6D1E2BD007FB1C114FF47A77B1
:10F0900091FBF7FC0CF1300E02F801EB6D1E1FD056
:10F0A00007FB1C1116B12E2602F8016B642691FB9A
:10F0B000F6F707F1300C02F801CB6D1E10D006FBFD
:10F0C000171191FBF4F606F1300702F8017B6D1E73
:10F0D00006D004FB1611303100E0202102F8011B9C
:10F0E000C11D8A42F9D300211170D11A4170F0BDBF
:10F0F0002DE9F041831C541C851C11F1004F10D1E7
:10F10000202119702E2103F8011F202103F8011F6F
:10F1100003F8011F03F8011F002103F8011F042158
:10F120000FE089B9302119702E2103F8011F302119
:10F1300003F8011F03F8011F03F8011F002103F862
:10F14000011F01700521B0E00F464FF0000C4FF099
:10F15000050E0A2607E0B7FBF6F70CF1010C624535
:10F1600038BF06FB0EFE0A2FF5D2944528BF714426
:10F170008C46002702E0BCFBF6FC7F1CBCF10A0FAA
:10F18000F9D24FF0030CB7FBFCFC80F800C0BE4680
:10F19000BEF1090F00F28280DFE80EF07B71665647
:10F1A0004A3E2D211505DFF88C73B1FBF7FC0CF1FD
:10F1B000300E03F801EB521E70D007FB1C112E27F6
:10F1C00003F8017B0027DFF870C3B1FBFCFE0EF1F2
:10F1D000300803F8018B521E60D00CFB1E11DFF8C3
:10F1E0005CC3B1FBFCFE0EF1300803F8018B521E2C
:10F1F00054D00CFB1E11DFF848C3B1FBFCFE0EF12E
:10F20000300803F8018B521E48D00CFB1E111FB1B1
:10F210002E2703F8017B0027DFF828C3B1FBFCFE93
:10F220000EF1300803F8018B521E37D00CFB1E1173
:10F2300042F2107CB1FBFCFE0EF1300803F8018BAA
:10F24000521E2BD00CFB1E114FF47A7CB1FBFCFE3E
:10F250000EF1300803F8018B521E1FD00CFB1E115B
:10F2600017B12E2703F8017B6427B1FBF7FC0CF1E3
:10F27000300E03F801EB521E10D007FB1C11B1FB3E
:10F28000F6F707F1300C03F801CB521E06D006FB4F
:10F290001711303100E0202103F8011B2118891CCF
:10F2A0008B42F8D300211970591B4170BDE8F081E1
:10F2B0002DE9F04F85B004460D4601270A200126AE
:10F2C0003AB9042028702D220521204602F0E6F9E3
:10F2D00054E090464FF47A7B09E057460A214843B0
:10F2E000042F04DB0127761CB2FBFBF20A2007F196
:10F2F000010AB2FBF0F10029EFD18BA102A800F0C6
:10F300003DF940F2E939C8450FDB88A1022E04D14E
:10F3100098FBFBF00BFB108204E0894898FBF0F2AD
:10F3200000FB128200A800F029F90921204602F012
:10F33000E9F9002003E002A9415C0155401CB842F4
:10F34000F9DB2E2038555746C7F10501012903DBAB
:10F350003022381902F0A2F9C8450CDB002000A9C0
:10F36000415CA1F13002D2B20A2A38BF39557F1C64
:10F37000401C0428F3DB002060712E7005B0BDE84E
:10F38000F08F10B5642291FBF2F303F130040470A6
:10F3900002FB1311C9B20A2291FBF2F303F130040C
:10F3A00000F8014F02FB1311303100F8011F00215A
:10F3B00000F8011F10BD10B5002903D42B2200F85E
:10F3C000012B03E02D2200F8012B494249B26422AF
:10F3D00091FBF2F303F13004047002FB13112E22AF
:10F3E00000F8012F49B2D6E70A0F0A2A2CBF37329C
:10F3F000303200F8012B090109090A0E0A2A2CBF34
:10F400003732303200F8012B0902090A0A0D0A2AA4
:10F410002CBF3732303200F8012B0903090B0A0CDC
:10F420000A2A2CBF3732303200F8012B89B20A0B7E
:10F430000A2A2CBF3732303200F8012B0905090D9A
:10F440000A0A0A2A2CBF3732303200F8012BC9B21F
:10F450000A090A2A2CBF3732303200F8012B01F09A
:10F460000F010A292CBF3731303100F8011B002170
:10F470000170704710B5040001D1002010BDA00834
:10F48000FFF7F8FF4000401C00FB00F18C4238BF42
:10F49000401E10BD38B500240420FEF74DFAC043CD
:10F4A00080B229490A8830EA0202284B20D0192567
:10F4B0001D70130748BF0924530648BF0A24D3050B
:10F4C00048BF0324930548BF0424530548BF0524BF
:10F4D000130548BF0624D30448BF0724930448BF3C
:10F4E0000224530448BF0124120419D5082417E04C
:10F4F0000A88104214D01A78002A02BF144A1378DE
:10F50000002B0DD1430548BF0524030548BF062441
:10F51000030748BF0924030448BF082405231370C8
:10F520000880204632BD00002564000025336400B9
:10F53000ACA3002000CA9A3B00E1F5058096980034
:10F5400040420F00A0860100D4A30020A5A3002004
:10F55000A6A30020002202F0D9B850F8041B61B124
:10F5600050F8042BD30744BFA9F101039A180023D4
:10F5700042F8043B091FFAD1EFE770470CB41CB501
:10F58000044604A80190009401AB0A4600A907486C
:10F590007844183002F0D4F8009900220A7000284C
:10F5A0005CBF0098001B16BC5DF80CFB7B000000E4
:10F5B00062B38B0708D0521E11F8013B00F8013BE3
:10F5C00000F024808B07F6D1830740F0208000BF35
:10F5D000103A07D330B4B1E83810103AA0E8381028
:10F5E000F9D230BC530724BFB1E80810A0E80810D6
:10F5F00044BF51F8043B40F8043BD20724BF31F824
:10F60000022B20F8022B44BF0B7803707047083A96
:10F6100007D3B1E80810083A40F8043B40F804CB9F
:10F62000F7D25307E4E70268531C03601170704778
:10F630004FF4001C1CEB410F94BF1CEB430F09E07F
:10F6400041EA030C50EA4C0C52EA0C0C03D29942EA
:10F6500008BF9042704714BF8B428242704700003F
:10F660001B4213D1094236D12AB18446B0FBF2F0D5
:10F6700002FB10C2704702F0CBBEFCD30022002375
:10F6800070470B000200002100207047904271EB90
:10F69000030CF6D370B5B1FA81F4B3FA83F52C1BE1
:10F6A000A340C4F1200532FA05F63343A2405FF0CF
:10F6B0000046E64002E05B085FEA3202841A71EB22
:10F6C000030524BF204629467641F4D302000B00EF
:10F6D0003000002170BD012ACFD970B5140C20D0A4
:10F6E000B1FA81F4B2FA82F5C4F120046419B4F1DC
:10F6F0002006D6D3B2405FF00044F440002502E07B
:10F7000052085FEA3303C61A71EB020E24BF30467B
:10F71000714664416D41F3D302000B0020002900C3
:10F7200070BD0C46B1FBF2F102FB11452D0445EA18
:10F730001045B5FBF2F402FB145580B240EA0545D2
:10F74000B5FBF2F002FB105240EA044070BD00002D
:10F75000010040F10980F446404200F005F851F004
:10F7600000416047010000BF09D0B0FA80F1884035
:10F77000C91CC1F58461090501EBD0214005704722
:10F780005FEA000C830706D011F8013B00F8013B4B
:10F79000B3B18307F8D10A68B2F1013323EA020357
:10F7A00013F0803F02BF40F8042B51F8042FF3E719
:10F7B00011F8013B00F8013B13B111F8013BF9E7E7
:10F7C0006046704710B582B00C46014600A8FFF7AE
:10F7D000D8FD9DF8000020719DF8010060719DF832
:10F7E0000200A071002016BD4FF6FF71884201D1C2
:10F7F000002070474FF6E07101EA00028A4201D111
:10F80000012070474105490D40F2FF72914201D13C
:10F81000032070474FF61F0101EA00028A4201D11E
:10F820000520704700F4FC61B1F5FC6F01D10720A1
:10F8300070474BF6E05101EA00028A4201D10220F2
:10F84000704740F2F75101EA00028A4201D10420D8
:10F8500070474BF6170101EA00028A4201D10620E7
:10F86000704700F4BC61B1F5BC6F01D1082070474E
:10F8700047F6EF3101EA00028A4201D109207047C0
:10F8800040F21F5101EA00028A4201D10A2070476A
:10F8900000F47841B1F5784F01D10B20704700F0AA
:10F8A0001F001F2801D10C2070470D207047F0B5B4
:10F8B00087B003A90FF69C3200F0ADF9DFF8C84A13
:10F8C00000AB01AA03A92046FEF752F8050024D197
:10F8D0004FF4B476DFF8CC7A387868B9002501A9FE
:10F8E0002046FEF747F860B93246214600F017F887
:10F8F0006D1C042DF3DB0FE001A92046FEF73AF85A
:10F9000008B1082009E00025324604EB452100F04B
:10F9100006F86D1C042DF7DB002007B0F0BD06FBD8
:10F9200005702430FFF744BE2DE9F04788B0044647
:10F9300003A80FF62C310D22FFF74AFE03A920463B
:10F94000FFF740FF00F06FF908B10A2050E04FF4D4
:10F9500080512046FFF7FEFD40F60A095026DFF8E9
:10F9600048AA40F26718DFF8445A00F04FF91DD159
:10F970000027002007EB8002525D10EB47231A5549
:10F98000401C4045F6DB06FB07A0008F14EB472127
:10F9900081F867017F1C042FEBDB00F040F930BBDE
:10F9A00007F003034A4600F02CF918E00027002076
:10F9B00007EB8001495D0155401C4045F8DB06FB23
:10F9C00007A0008F84F8670100F029F978B907F0E3
:10F9D00003034A4600F015F97F1C042FE7DB00AB58
:10F9E00001AA4FF400612046FDF7C8FF00B10920CD
:10F9F00008B0BDE8F0872DE9F04F87B003A90FF6F6
:10FA00006C2238CA38C10024DFF898793978012986
:10FA10000CBF4FF480554FF4007503A9FFF7D2FED9
:10FA2000DFF8646900AB01AA03A93046FDF79EFF29
:10FA300008B10A206AE0362207F2C4513046FFF7C7
:10FA4000C7FD002007EB4001898806EB80020B0A06
:10FA500003F0F80382F8363002F23602CB0803F0E6
:10FA6000FC035370C9009170D470401C1028E9DB6E
:10FA70007627A0464FF0000921461FFA89F0FDF7CE
:10FA800037FFFDF763FF8346214609F1010080B28D
:10FA9000FDF72EFFFDF75AFF82465846FFF7A4FEFA
:10FAA00083465046FFF7A0FE00EB0B10B8557F1CB5
:10FAB000BFB2AF4210D301A93046FDF75DFF20BBB6
:10FAC000C8F3410340F60A0200214FF4B170FCF77D
:10FAD00017FF08F10108002709F102091FFA89F050
:10FAE000B0F5C87FC8D3641CA4B2F02CC2D327B130
:10FAF00001A93046FDF740FF38B900AB01AA4FF429
:10FB00003C413046FDF73AFF00B1092071E32DE991
:10FB1000F04186B003A90FF6601200F07CF800F007
:10FB200082F808B10A2066E000F070F807BF0426EA
:10FB30004FF4805720264FF400770025DFF87088B7
:10FB400007E0681000F0030340F60A0200F059F8DD
:10FB50006D1CB5420DD23A4607FB05F0800808EB54
:10FB600080012046FFF724FD00F059F80028E8D076
:10FB700040E039462046FFF7EDFC20460025DFF83F
:10FB80002818502202FB051200F048FC6D1C042DC1
:10FB9000F7DBB1F8A0210280B1F8B42120F8022FE0
:10FBA000B1F92420DFF80C38D25C20F8022FB1F92B
:10FBB0002420DFF8043833F8122020F8022F2431F3
:10FBC000B1F95020DFF8F437D25C20F8022FB1F9F8
:10FBD0005010DFF8EC2732F8111020F8021F00F067
:10FBE0001EF838B900AB01AA4FF484412046FDF756
:10FBF000C5FE00B1092006B0BDE8F081CAF341039B
:10FC00003A4600214FF4AA70FCF77ABEDFF8940759
:10FC100000780128704738CA38C103A9D2E501A984
:10FC20002046FDF7A9BEDFF8604700AB01AA03A993
:10FC30002046FDF79BBE2DE9F04F89B0064605A88A
:10FC40000FF640010D22FFF7C3FCDFF878074AF6F4
:10FC50005521018000F1020B0020DFF84C97502164
:10FC600001FB00910A8A2BF8022B8A8C2BF8022BBD
:10FC70000A8F2BF8022BB1F84C102BF8021B401CFA
:10FC80000428ECDBB9F8A0012BF8020B09F5D075BC
:10FC9000A88A2BF8020B0020DFF824A7DFF81C77D6
:10FCA000DFF81487DFF80C47015D2BF8021B38F8EA
:10FCB00010102BF8021BC15D2BF8021B3AF8101034
:10FCC0002BF8021B401C0828EEDB05A93046FFF785
:10FCD00079FDDFF8B4B602AB03AA05A95846FDF7D3
:10FCE00047FE06006CD1FFF791FF04D1042001907C
:10FCF0004FF4805003E0202001904FF400700090FA
:10FD000003A95846FDF736FEA0B9009A594602FBF2
:10FD100006F08008DFF8983603EB8000FFF748FC18
:10FD2000701CC6B201988642EAD303A95846FDF773
:10FD300021FE08B1082043E00026502000FB069079
:10FD40003BF9021B018200F110013BF9022B8A8270
:10FD50003BF9022B0A8500F23A023BF9023B53823F
:10FD600002238B708B7580F83A301375761C042E45
:10FD7000E3DBBBF90000A9F8A0013BF9020FA88260
:10FD8000AB70AB75B9F924003BF8021F01553BF885
:10FD9000021F28F8101009F12400B0F950003BF8B8
:10FDA000021FC1553BF8021F2AF810100120A9F8C4
:10FDB000500109F5A870817841F00201817000209E
:10FDC0001AE130B500235024DFF8DC5504FB005065
:10FDD000B0F938000A24DFF8F05504FB005002E0C7
:10FDE0005C54401CEBB25D1C04781CB1212CF7D193
:10FDF0002024F5E72C205854581800214170157024
:10FE000030BD2DE9F04F89B006A90FF2846238CADF
:10FE100038C14FF0000ADFF88C15097801290CBFB2
:10FE20004FF480544FF4007406A9FFF7CBFCDFF8C1
:10FE3000585504AB02AA06A92846FDF797FD08B15C
:10FE40000A20D9E007220FF254612846FFF7C0FBD1
:10FE500000AAE91D0020FFF7B4FF9DF80000C61DB1
:10FE6000771907220FF23C613846FFF7A1FB00AA81
:10FE7000F91D0120FFF7A5FF9DF80000C01D8619A0
:10FE80000F220FF228617019FFF792FB06F10F0B9A
:10FE9000564640F60A070DF10408DFF8140550F83D
:10FEA0002600DFF80415B1F92420DFF808155156B3
:10FEB000DFF8043533F81220C3B25A4300F0AEF82D
:10FEC0008DF80410DFF80415B1F95020DFF8EC14B8
:10FED0005156DFF8EC3433F8122000F47F435A43D4
:10FEE000120A00F09BF888F80110DFF8BC14B1F991
:10FEF000D810C20348BF143188F80210DFF8D014BC
:10FF0000B1F95010800352BF88F8031001F11400BA
:10FF100088F803004FF0000919F8081005A8FFF74A
:10FF200030FA00208DF800009DF8000005A9405C23
:10FF300098B100F069F807D300F06CF800285AD1A6
:10FF4000FFF75CFE00F05BF89DF80000401C8DF8A8
:10FF500000009DF800000328E6D32C2000F054F8A0
:10FF600007D300F057F8002845D1FFF747FE00F00F
:10FF700046F809F101005FFA80F9B9F1040FCBD31B
:10FF80000D2000F041F807D300F044F8002832D1EA
:10FF9000FFF734FE00F033F80A2000F035F807D3FD
:10FFA00000F038F8002826D1FFF728FE00F027F8E7
:10FFB000761CB6F5805FFFF470AFBBF1000F10D078
:10FFC0000D200BF805000BF101000A214155421CE0
:10FFD000A11A501901F096FB00F01CF858B9FFF770
:10FFE0000DFE04AB02AA5FFA8AF004FB00F128467A
:10FFF000FDF7C4FC00B1092009B0BDE8F08F0AF19B
:020000040801F1
:10000000010A4FF0000B70470BF805000BF1010BD4
:10001000A345704702A92846FDF7AEBC02F5007261
:1000200001EB922109B2012903DBC92902DBC721B7
:100030007047002170472DE9F04F87B00024FDF78D
:100040006FFC014603A8FFF7CFF903A85021017206
:1000500041214172522181728DF81740CA4D00AB87
:1000600001AA03A92846FDF783FC5FEA0009DFF82F
:1000700064A3DFF86463DFF864B3DFF82C8307D090
:10008000B8F888000A30ABF804000A20308089E014
:1000900001A92846FDF76EFC08B10820A9E02878E0
:1000A000062818BF0520F9D10021485D0019C4B207
:1000B000491CB1F5007FF8DB0CB1062099E02888D7
:1000C000000AC7490870A81C0021C64A038802F824
:1000D000113002EB410330F8024B240A5C70491CDA
:1000E0000729F3DB0021502202FB018230F9023B99
:1000F0001382103230F9023B938230F9023B1385B0
:1001000030F9023B9387491C0D29ECDB002100F0FC
:1001100043F90388537130F8023B1B0A1371491CE1
:100120000929F4DB0021B04AB04BDFF894C2DFF8B4
:1001300088E2A24C9F4D07884F5507883F0A0F550C
:1001400030F8027F2EF8117030F8027F2CF8117011
:1001500030F8027FCF5430F8027B3F0A8F54491C9D
:100160000A29E8DB30F9021BABF8001030F9021B5A
:10017000ABF804100021142202FB01A230F8023B6C
:100180009381491C1129F6DB0188318030F8021F68
:10019000974A117030F8021FAAF80E1030F8021FAB
:1001A000AAF8C210B8F9C8011E214843C0F15A008C
:1001B000904908800AF20E02907A8F4931F81010A7
:1001C0008E4B1980518A8E4B1980D38C8D4C238095
:1001D000528F8D4B1A80BAF85C208C4B1A80BAF87B
:1001E00070208B4B1A802BF820108A4831880180B0
:1001F000484607B0BDE8F08F2DE9F04387B00024F2
:10020000FDF78EFB014604A8FFF7EEF804AE00F000
:10021000BDF8B0725C4D00AB01AA04A92846FDF7F9
:10022000A7FB10B104281CD0A8E0BDF80400ADF86D
:100230000C0042203072412070724B2000F0FCF81C
:10024000A0B903A92846FDF795FB08B1082096E060
:1002500001A9FFF7E0FE0028E6D100F0F4F800283D
:10026000E2D100F093F800F0E7F808B10A2086E048
:100270004FF400712846FFF76DF9594800780002E5
:10028000801D2880A81C0021564A02EB41035B78A0
:1002900012F8116006EB032320F8023B491C0729E2
:1002A000F3DB00215022404B02FB013200F0B6F894
:1002B000491C0D29F6DB002100F06EF81379527904
:1002C00002EB032220F8022B491C0929F4DB002150
:1002D000464A454B3A4EDFF8E080DFF8D8C0DFF8F9
:1002E000DCE011F90E7011F90C9009EB072720F8EA
:1002F000027B38F8117020F8027B36F8117020F874
:10030000027BCF5611F9029009EB072720F8027BF8
:10031000491C0A29E5DB31490A8820F8022B898823
:1003200020F8021B00212B4A142303FB01239B8985
:1003300020F8023B491C1129F6DB27490988018076
:100340002B49097820F8021FD18920F8021FB2F842
:10035000C21020F8021F0020415D0C19E4B2401CBD
:10036000B0F5FF7FF8DDE043401C85F8FF0101A9EF
:10037000FFF751FE10B900F066F800B1092007B090
:10038000BDE8F083000000003C8D0020502030725A
:1003900041207072522070470C221F4B02FB013229
:1003A0007047000058270020002000203C9D0020BE
:1003B000CC350020E0330020B8330020EC3300209F
:1003C000CC330020DCA20020942500202420002033
:1003D000D8200020102400202E3500208035002059
:1003E0000F3500201C35002004340020F833002095
:1003F0000B35002074350020503500208C30002053
:100400008E30002090300020923000208830002074
:100410008A300020B2A3002090340020138A20F8F4
:10042000023B938C20F8023B138F20F8023BB2F87A
:100430004C2020F8022B7047B07200AB01AA04A92F
:100440002846FDF793BA00AB01AA4FF40071284685
:10045000FDF794BA46494C452020202044415400E1
:1004600046494C452020202044415400494D4147F5
:1004700020202020424D5000444154412020202083
:100480004255460044415441202020204255460018
:1004900044415441202020204353560054524143AC
:1004A0004B312000545241434B32200054524143BF
:1004B0004B332C545241434B342C0D0A00000000A6
:1004C000F8B500211420FDF733FA01212420FDF7AF
:1004D0002FFADFF8F84C2068B0F95C110720FDF71F
:1004E00027FA2068B0F85E110820FDF721FA0121F3
:1004F0000920FDF71DFA01210B20FDF719FA6421EF
:1005000000F017FF642100F002FFDFF8C44C206800
:1005100081880A20FDF70CFA20688088411C0C2095
:10052000FDF706FA01210520FDF702FA202120201F
:10053000FDF7FEF902F0A7F84FF4FA60FEF7F1FCC0
:1005400001210620FDF7F4F91420FEF7EAFCDFF89C
:10055000844C4FF400602060DFF87C5C286000264B
:10056000DFF8787CFDF7D8F947F826002168C2B299
:10057000511821602A68C0F3072080182860761C73
:10058000B6F5805FEEDB2868081A000BDFF8101D57
:100590000870F1BD2DE9F04FA3B004460AA80FF68C
:1005A00060312CC92CC0DFF8FC0C00210170142034
:1005B000FDF7BEF9DFF8F06CB6F83801401C0A21EF
:1005C00041430220FDF7B4F90020FDF795F9DFF86B
:1005D000DC0C002101700520FDF7AAF9012124207F
:1005E000FDF7A6F920212020FDF7A2F902F04BF833
:1005F000DFF8BC0C0021A0F85011B6F84C0100EB5C
:1006000080010320FDF794F9DFF8A80C4FF4FA718C
:100610000180002637468DF80460DFF8B08BD8F8EB
:100620000000B0F9F8100720FDF782F9D8F80000B3
:10063000B0F8FA100820FDF77BF931460920FDF7E4
:1006400077F931460B20FDF773F9B24640F28F1867
:100650004FF6FF79B34651461FFA8BF0FDF748F984
:1006600000F048FE0BF1010BC345F4DB0AF1140A5C
:10067000BAF1DC0FEED3B246EF211FFA8AF0FDF794
:1006800037F900F037FE0AF1010AC245F4DB002118
:100690000846FDF72DF94FF0EF0800F02BFEB8F1FA
:1006A0000108FAD114212B20FDF722F94FF0B508EB
:1006B00000F020FEB8F10108FAD114215720FDF70F
:1006C00017F94FF0B50800F015FEB8F10108FAD19E
:1006D00014218420FDF70CF94FF0B50800F00AFE54
:1006E000B8F10108FAD11421C820FDF701F94FF043
:1006F000B50800F0FFFDB8F10108FAD11421F3208C
:10070000FDF7F6F84FF0B50800F0F4FDB8F1010878
:10071000FAD1142140F21F10FDF7EAF84FF0B508A6
:1007200000F0E8FDB8F10108FAD114214FF4A670E9
:10073000FDF7DEF84FF0B50800F0DCFDB8F1010878
:10074000FAD100214FF4C770FDF7D2F84FF0EF084F
:1007500000F0D0FDB8F10108FAD10FF6EC3000F04E
:100760005CFDB9210620FCF7FCF80FF6E438CDF863
:10077000008033460822B9213120FCF7F2F80FF649
:10078000D839CDF8009033460822B9215D20FCF716
:10079000E8F80FF6CC3ACDF800A033460822B9218C
:1007A0008920FCF7DEF80FF6C030009000F01DFD48
:1007B000CE20FCF7D6F8CDF8008000F016FDF92029
:1007C000FCF7CFF8CDF8009000F00FFD40F22510B7
:1007D000FCF7C7F8CDF800A000F007FD4FF4A970B2
:1007E000FCF7BFF8B24654E0142000FB0AF8C8F149
:1007F000A60900F0E0FC00F02BFD0620FCF7B1F8A4
:1008000000F0D9FC334618221FFA89F1CE20FCF7FC
:10081000A8F816A8DFF8A01A00F0E2FC1EA8DFF87E
:100820009C1A31F81A1020F81A1010A8DFF8901A44
:1008300000F0D6FC13A8DFF88C1A00F0D1FC19A840
:10084000DFF8841A31F81A1020F81A100DA8DFF812
:100850007C1A00F0C5FCDFF8600A0AF80060DFF8D7
:100860005C0A4FF4806120F81A10DFF8540A0AF885
:100870000060DFF8500A0AF80060DFF84C0A20F840
:100880001A10DFF8480A0AF800600AF101001FFA9E
:1008900080FA00F059FCA7DADFF83C0A008870B152
:1008A000DFF8380A008850B900210220FDF740F82F
:1008B00001211420FDF73CF823B0BDE8F08F31464C
:1008C0000A20FDF735F831460C20FDF731F81420E9
:1008D000FEF727FB01210620FDF72AF81420FEF77A
:1008E00020FBDFF8F0884FF40060C8F80000DFF864
:1008F000E898C9F800004FF0000ADFF8E0B8FDF70B
:100900000BF84BF82A00D8F80010C2B25118C8F8FA
:100910000010D9F80020C0F307208018C9F80000A3
:100920000AF1010ABAF5805FE9DBDFF88C0930567D
:10093000DFF8882932F81620090B514301F50071C0
:1009400000EB91200FFA80F8DFF878093056DFF8D5
:10095000781931F81610D9F80020120B514301F51F
:10096000007100EB91200FFA80F9DFF8740901782B
:10097000002900F067820021017014207043069066
:10098000C0F1A60A701CC0B20590A9F128008DF82C
:100990000600A8F128008DF8050009F1600108F1B2
:1009A00060006A1CDFF83CB9FFB20C2F00F24A82EB
:1009B000DFE817F00D004C007B00B500CE00EE0024
:1009C00025015F01E2011D0236023B0240020026C2
:1009D00000F0A0FC00F091FC0FF69410009033465C
:1009E0003822D82100F0ACFC0FF69C100090334662
:1009F0003822D821E820FBF7B4FF0FF698100090BA
:100A00003346A822D8214FF49870FBF7AAFF0FF6BF
:100A100090100090334600F091FC06A000F031FCED
:100A20005020FBF79EFFE4B234B90FF6A41000F09B
:100A3000F4FB08E020000000012C35D10FF69810DF
:100A4000009000231822D821B820F9E10FF6901069
:100A500000F072FCE4B24CB900F06BFB00F0D0FB8C
:100A60002D20FBF77EFF00F089FB0CE0012C0BD161
:100A70009DF9061000F05FFB00F0BBFBF520FBF7D3
:100A800070FF00F06DFB705400F09AFBBCBF0026B5
:100A90000227DFF82C08305600F043FCDFF82C0862
:100AA000305600F02CFC0025CCE1D5B2082D28BF33
:100AB0000025E4B274B900F03CFB00F0DAFB2D2015
:100AC000FBF74FFFB8F1280001D1002514E000F03A
:100AD00055FB0FE0012C0ED19DF9061000F02BFB09
:100AE00000F0C0FBF520FBF73CFFB9F12800ECD08B
:100AF00000F036FB705405B9059E00F062FBBCBFE8
:100B000000260327DFF8B807305600F00AFCDFF8AC
:100B1000BC0730562821484300F522406CE01546BA
:100B200000F025FB00F001FC00F013FB00F0EBFBF4
:100B3000E4B214B9B8F18D0F03E0012C03D1B9F17F
:100B40008D0FA8BF0427EDB2152D00D37F1C79E1CE
:100B50000025E4B254B941B200F0EDFA00F050FBC8
:100B60005920FBF7FEFE00F01BFB0CE0012C0BD123
:100B700049B200F0E0FA00F03CFB40F22110FBF734
:100B8000F0FE00F002FB705400F01AFB2EDA2BE0AE
:100B9000D5B2082D28BF0025E4B27CB941B200F0DF
:100BA000CAFA00F066FB5920FBF7DBFEB8F1A000A3
:100BB00001D1002514E000F0F3FA0FE0012C0ED172
:100BC00049B200F0B8FA00F04DFB40F22110FBF7FB
:100BD000C8FEB9F1A000ECD000F0D7FA705405B906
:100BE000059E00F0EEFA01DA00267F1C00F0BFFA45
:100BF00000F09BFB00F0ADFA00F085FB22E1D5B2DE
:100C0000152D28BF072700269DF80400022815D2BD
:100C100000F080FB00F071FBE4B21CB9B8F1320FB8
:100C20000BDA04E0012C08D1B9F1320F05DA012703
:100C30009DF80400401C8DF8040003E14FF0190AF0
:100C4000DFF87C0600F07AFA00F06FFBDFF87C0634
:100C500000F074FA00F057FB781CE4B214B9B8F154
:100C6000370F03E0012C03D1B9F1370F00DA074643
:100C7000E8E00FF29C7000F0F0FA2020FBF771FE24
:100C80000C200FF6AC1100FB061000909BF8003012
:100C9000A822D8215820FBF764FE0FF27C7000F0E8
:100CA000DCFAA020FBF75DFE0FF2847000F044FB3D
:100CB00078A000F0E6FA9020FBF753FE76A000F053
:100CC000E0FAB020FBF74DFE0FF280700090002399
:100CD00038220621D820FBF744FE00F0D1FA4FF469
:100CE000A870FBF73EFE6DA000F0CBFA4FF4B87091
:100CF000FBF737FEE4B2F4B9B8F1240F04DBA8F136
:100D0000190000F008FA00E0002107A8FEF710F92A
:100D10000DF11E0000F093FA8620FBF722FE00F092
:100D200001FA00F08CFAAE20FBF71BFE0FF23470D4
:100D300000F073FA57E0012C4FD1B9F1240F04DB16
:100D4000A9F1190000F0E7F900E0002107A8FEF77B
:100D5000EFF80DF11E0000F06BFA4FF4A770FBF7EF
:100D600000FE00F0DFF900F063FA4FF4BB70FBF710
:100D7000F8FD0FF2F86033E000208DF804000FF268
:100D8000F46000F0D9FA00F07BFA6020FBF7E9FD8F
:100D900042A000F076FA8020FBF7E3FD0FF2E86056
:100DA00000900023382206218820FBF7DAFD0FF29D
:100DB000FC6000F052FA00F0C3FA0FF2007000F08D
:100DC00026FAFBF7CEFD00F062FAE4B224B90FF286
:100DD000087000F022FA06E0012C33D10FF2007007
:100DE000009000231822D8214FF4A47028E000F0CE
:100DF0004EFA0FF2F46000F030FA7020FBF7B1FD0C
:100E0000E4B214B90FF2F86003E0012C1AD10FF22A
:100E1000FC60009000231822D8214FF494700FE05A
:100E200000F035FA0FF2F06008E000F030FA0FF24F
:100E30000C7003E000F02BFA0FF2247000F0E7F9D9
:100E4000FBF78FFDDFF85C04007800283FF424AD49
:100E5000DFF8840400883C214843DFF880140880D0
:100E600000F0AFF92EDBFFB2072F2BD11420704317
:100E7000C0F1A60AE4B29CB90DF11E0000F0FAF927
:100E80008620FBF76EFD00F04DF900F0F3F9AE207F
:100E900016E000BF2D0000002B0000003E00000007
:100EA000012C0FD10DF11E0000F0DDF94FF4A770F9
:100EB000FBF757FD00F036F900F0D5F94FF4BB70A1
:100EC000FBF74FFDC2480068DFF8D8130978022904
:100ED0000CD0052900F0DD80062900F0F1800829FA
:100EE00000F0C480092900F0B18003E1FFB20FB91E
:100EF0000127FFE0082F03D0092F3CD1C4F10104E2
:100F00004FF0000A0FF284670FF2786817E0012CA7
:100F100011D100F086F9F520FBF723FD00F081F9EF
:100F200040F22110FBF71DFD009700F07CF94FF413
:100F3000A770FBF716FD0AF101001FFA80FA00F016
:100F400003F916DB142000FB0AF0C0F1A609E4B295
:100F5000002CDCD100F07AF92D20FBF702FD00F027
:100F600075F95920FBF7FDFC009700F071F9862018
:100F7000DFE70027BEE00A2FFCD32AD14FF0000A9A
:100F80001FE0CD4916AA00F0C1F8CC491EAA32F8DC
:100F90001A2021F81A20CA4910AA00F0B7F8C94946
:100FA00013AA00F0B3F8C84919AA32F81A2021F898
:100FB0001A20C6490DAA00F0A9F80AF101011FFA8A
:100FC00081FA81885145DCDAFFF716F90FF2C45037
:100FD0002FE00B2F04D1FFF70FF90FF2EC5028E0B0
:100FE0000C2F2CD14FF0000A1CE0B34900220AF864
:100FF0000120B2494FF4806221F81A20B049002242
:101000000AF80120AF490AF80120AF494FF4806285
:1010100021F81A20AD4900220AF801200AF1010145
:101020001FFA81FA81885145DFDAFFF7E5F80FF200
:10103000CC5000900023A822D82100F081F94FF471
:101040007A70FDF76EFF01F0E5F935E4FFB2072F86
:1010500004D1012E4EDB761EF6B24BE0092F28BFDD
:101060007F1EFFB2082F45D10C2743E0FFB2082FA7
:1010700028BF7F1CFFB20D2F28BF082703D2072FE0
:1010800004BF761CF6B28088B04233DA00267F1C9B
:1010900030E0FFB2072F2DD1E4B23CB9B8F1240FF4
:1010A00028DB864830F81600801E15E0012C21D17F
:1010B000B9F1240F1EDB844830F81600801E16E0BC
:1010C000FFB2072F16D1E4B244B9B8F1240F11DBF7
:1010D0007A4830F81600801C784909E0012C09D1C3
:1010E000B9F1240F06DB784830F81600801C7649E9
:1010F00021F816006B4800210170FFF7CDBB0000FE
:101100007556006D56005620006B56001AF80220E6
:101110000AF8012070470699734A1268891809690C
:10112000414370479DF81C0000EB40000AA940189D
:1011300070479DF9051002A8FEF73DB980570AFBDC
:1011400000F000F5CC407047214800688088504589
:1011500070475E483056A021644A01FB002070476A
:101160005848305CA0EB0900283056497047544875
:101170003056A0215D4A01FB002070474E48305C8C
:10118000A0EB080028304C4970475048305C584963
:1011900001EB8921A02291FBF2F1401A4B497047E3
:1011A0004748305C524901EB8821A02291FBF2F1C3
:1011B000401A434970474C480068404400907047CB
:1011C000059E034800688088B042704710340020B4
:1011D000CCA3002094A3002098A30020CC350020AD
:1011E0001AF801100AF80010704733461822B92186
:1011F000704702A80090012318221FFA8AF1704755
:1012000002A80090012308221FFA8AF1704700907B
:101210000023A822D82170207047009000230822C4
:101220007047CDF80080002318221FFA89F170471B
:1012300000909BF8003018221FFA8AF17047009046
:101240009BF8003008221FFA8AF17047CDF8008021
:10125000002308221FFA89F17047009000233822EA
:10126000D821704702A80090002318221FFA8AF1A3
:10127000704702A80090002308221FFA8AF17047E5
:1012800013A000909BF80030A8220621704711A0FF
:1012900000909BF80030A822D8214820FBF761BBC2
:1012A000D8A30020A7A300201024002094330020FE
:1012B00000200020AEA30020E0330020B83300203F
:1012C000F8330020EC330020CC330020043400201D
:1012D0003C000000200000002E350020B2A30020BA
:1012E000ABA30020AAA30020C8A300200082020014
:1012F0005080FDFF4846FCF7FDBA0748805728217B
:10130000484300F52240411200EB91508112012028
:10131000FCF70EBB014803E004340020F833002042
:1013200080572821484300F52240411200EB91509C
:1013300081120020FCF7FCBA00900023382206211D
:101340000820FBF70EBB000043485F41000000008F
:101350005A45524F00000000444946460000000034
:10136000564F4C544147450043485F42000000003F
:101370002020202020202020504C45415345204350
:101380004F4E4E4543540000494E50555420544F43
:1013900020000000474E4420202020202000000094
:1013A00020202050524553532020204B4559205493
:1013B0004F20434F4E4649524D2054484520494EF8
:1013C00050555420564F4C54414745202020000092
:1013D0002043485F412000002043485F4220000036
:1013E0002020204155544F4D415449432043414C06
:1013F0004942524154494F4E20494E2050524F4786
:10140000524553532E2E2E20202020202020000035
:1014100020494E5055542000205354414E444152CF
:101420004420564F4C5441474520544F2000000063
:101430004D4F4449465920564F4C544147453A2058
:1014400020202E2E2E2020202000000053454C4529
:1014500043542052414E47453A2020202D2D2D2027
:101460002020000043485F412020000043485F42A5
:1014700020200000202020205052455353202020BF
:101480002D2D2D202000000020544F2053454C4589
:10149000435420544845204E455854204F504552FF
:1014A0004154494F4E20202000000000202050527F
:1014B000455353202020544F20000000434F4E46F8
:1014C00049524D205448452052452D43414C4942F4
:1014D000524154494F4E200043485F4120000000D4
:1014E00043485F422000000053454C45435420547C
:1014F00048452043414C4942524154494F4E2000F7
:1015000043485F42202020202000000043485F41E4
:10151000202020202000000045786974205749547D
:10152000484F5554205341564520524553554C542D
:1015300053202020202020202000000045786974BE
:1015400020414E4420534156452043414C4942528C
:101550004154494F4E20524553554C5453000000BE
:101560004578697420414E4420524553544F5245AA
:101570002053595354454D2044454641554C5453EE
:10158000200000002020202020000000202020201B
:10159000202020002020202020202020202020206B
:1015A000202020202020202020202020202020203B
:1015B000202020202020202020202020202020202B
:1015C000202020200000000020202020202020209B
:1015D0002020534156494E47205448452043414C12
:1015E0004942524154494F4E204441544120202009
:1015F000202020202020202000000000202020206B
:10160000202020524553544F5245204445464155D1
:101610004C54532043414C4942524154494F4E206F
:1016200044415441202020202020202000000000A0
:101630003235302D3330306D5600000021302E35DC
:101640002D302E365621000021312E302D312E32F4
:101650005621000021322E352D332E305621000028
:1016600021352E302D362E305621000020213130EC
:101670002D31325621200000202132352D333056B5
:1016800021200000202135302D3630562120000049
:1016900000000000000000000000000062F30F22C4
:1016A00062F31F42401810F0030308D0C91A1FD379
:1016B000DB0748BF00F8012D28BF20F8022D1300DA
:1016C00030B414461546103928BF20E93C00FAD83A
:1016D000490728BF20E90C0048BF40F8042D8900C5
:1016E00028BF20F8022D48BF00F8012D30BC7047FC
:1016F000C91818BF00F8012DCB0728BF00F8012D2D
:10170000704700000022FFF7CDBF000000B500BF0A
:10171000130096469446103928BFA0E80C50FAD81A
:101720005FEA417C28BF0CC048BF40F8042BC907C2
:1017300028BF20F8022B48BF00F8012B00BD000095
:101740002DE9F04FA1B0804617461D46029102AE2A
:101750000020706211AC6FF000490AE017F8011B1D
:101760000298C0470290002800F06A82706A401C0C
:101770007062387808B9706A64E22528EED10020DA
:10178000F06030617061B061F061306201E040F0A2
:10179000010017F8011F2029F9D023290DD02B298A
:1017A00004D02D2906D030290AD00CE040F00200E8
:1017B00080B2EEE740F00400FAE740F00800F7E7F7
:1017C00040F01000F4E72A290DD129680A1D2A608B
:1017D0000968F162002904D54942F16240F0040031
:1017E00080B27F1C12E00021F16209E0F16A4945F4
:1017F00005D001EB810302EB43013039F1627F1C1C
:101800003A78A2F13001C9B20A29EFD339782E29EA
:1018100003D04FF0FF31B1621DE017F8011F2A29F4
:1018200006D129680A1D2A600968B1627F1C12E08E
:101830000021B16209E0B16A494505D001EB81039D
:1018400002EB43013039B1627F1C3A78A2F13001DA
:10185000C9B20A29EFD3308639780FF6983001F0F3
:1018600003FE08B117F8010B8DF83A009DF83A0015
:10187000682804D1387868280AD1622005E06C28ED
:1018800004BF38786C2803D171208DF83A007F1C92
:1018900011A8B0603978B1F1250023D01C3871D07F
:1018A000001F02286ED9133800F09680093869D0DD
:1018B000801E00F02781401E00F0D180401E0228CB
:1018C00060D9001F00F0CB80401F30D0401E00F0D8
:1018D0008380401E20D0C01E09D0801E7CD0C01E38
:1018E0007AD017E1F068411CF16025211BE12868DE
:1018F000011D296000687060B26A002A02D501F0FB
:10190000BFFD07E0002101F0D7FD00281ABF716874
:10191000401AB06A306107E12868011D296000683B
:101920000021CDE9000111A870607821E6E09DF862
:101930003A00622818D0682806D06A280BD06C2894
:1019400019D0712807D016E02868011D2960716A36
:1019500000680180E8E02A68101D2860706AC117DD
:101960001268C2E90001DFE02868011D2960716A80
:1019700000680170D8E02868011D2960716A00685C
:101980000160D1E02868C01D20F00700286000F148
:1019900008022A60D0E90023CDE90023002B04D5FA
:1019A000F068421CF2602D220DE0308E820704D5D3
:1019B000F068421CF2602B2205E0C00704D5F068F5
:1019C000421CF26020220255F06811AA8018706053
:1019D00000A800F0C5F9A7E09DF83A006C2808BF00
:1019E0002A6811D0712808BF2A6802D06A282A689C
:1019F0000AD1D21D22F007022A6094460CF1080297
:101A00002A60DCE9002303E0131D2B601268002329
:101A1000CDE90023682808BF92B207D0622808BF2A
:101A2000D2B203D0742818BF7A2802D10023CDE99E
:101A3000002396F8300000075CD5DDE90023002B79
:101A400008BF002A56D041F02000782852D1F06813
:101A500030220255401C421CF26001554AE09DF8BC
:101A60003A0062280CD0682810D06A281AD06C2856
:101A700023D0712816D074281FD07A280CD01CE0EF
:101A80002868021D2A6090F900201AE02868021DCB
:101A90002A60B0F9002014E02868021D2A6002685C
:101AA00000230FE02868C01D20F00700286000F127
:101AB00008022A60D0E9002304E02868021D2A6099
:101AC0000268D317CDE90023002B04DAF068421C2A
